:02000002D0002C
:1040000000400D0028650D00000006000C000501B1
:08401000040135080000000066
:04401800FC610D003A
:10401C0009480A49884208B505D0094A824202D0AB
:10402C00121A02F09BF80748074A0021121A02F0F4
:10403C00A3F8014808BD00BF4CE5032094640D00B3
:10404C00B8E50320B8E50320F0E7032070B5074E70
:10405C00074C01F09BFAA41BA4080025A54200D133
:10406C0070BD56F8043B98470135F7E764640D00C2
:10407C0088640D0000F0EAB908B500F0F9F8BDE865
:10408C00084001F045BA00F073BD00F079BD00782E
:10409C00B0FA80F0400970470123037070477047F5
:1040AC0010B5064B036064330446036100F08CFECC
:1040BC00204601F04FF8204610BD00BFC4620D0031
:1040CC0010B51821044601F052FE204610BD10B563
:1040DC000446FFF7E5FF20464C2101F048FE204640
:1040EC0010BD000030B5144C0023606887B01A4630
:1040FC00194600F0D5FC00226068114600F0E8FC7F
:10410C000028F8D0052001F0C1F901F05BFB0B4948
:10411C0001F05EF901F056FB00221146054660687D
:10412C0000F0B6FC811C684601F0A2FA69462846EC
:10413C0001F071F907B030BDB8E7032010620D0033
:10414C0030B59FB001688DED010A09A800F0F4F9B3
:10415C000C4D9DED010A09A800F02DFA0A4B0393B2
:10416C000FCD04AC0FC42B682370084B08491B6897
:10417C0003AA09A800F04AFA09A800F0FFF91FB039
:10418C0030BD00BF24E6032054630D004CE5032032
:10419C00BCE50320F0B500240D4D0E4E85B027462E
:1041AC0015F8013B01347BB13146684601F082F8C9
:1041BC0007EE904A6846B8EEE70AFFF7C1FF68467B
:1041CC0001F02DF805F8017C0C2CE9D105B0F0BDFF
:1041DC0038E6032022620D0008B580B201F06EFDB6
:1041EC00003818BF012008BD2DE9F8430720FFF760
:1041FC00F3FF0446A0BB01F08DFD02225A2101F011
:10420C00F6FB01F087FD0368DFF860805B69984777
:10421C00064601F07FFD03685B699847F6B246EAF3
:10422C000020114E85B24FF0010945FA04F313F04A
:10423C00010317D001F0C6FA414601F0C9F801F0AC
:10424C00C1FA0A220746214601F0EFF8384601F080
:10425C00CCF886F8009001340C2C06F10106E4D160
:10426C00BDE8F8833370F6E738E6032029620D00C9
:10427C0008B5502001F00AF9FFF7B6FFBDE8084079
:10428C00FFF788BF70B5064614460D4601F042FD97
:10429C00314601F0B3FB01F03DFD036829469B68F4
:1042AC00984701F037FD036821469B68984701F059
:1042BC0031FDBDE8704001F0A8BB10B500220446EA
:1042CC005E21FFF7DFFF204601222B21FFF7DAFFEB
:1042DC00204601222C21FFF7D5FF204600222D215C
:1042EC00FFF7D0FF204600222E21FFF7CBFF204600
:1042FC0001222F21FFF7C6FF204601223021FFF7B4
:10430C00C1FF2046FF223121FFF7BCFF20460222CD
:10431C003221FFF7B7FF204606224121FFF7B2FFFB
:10432C0020460A224221FFF7ADFF204606224321F8
:10433C00FFF7A8FF20460A224421FFF7A3FF2046DF
:10434C0006224521FFF79EFF20460A224621FFF751
:10435C0099FF204606224721FFF794FF20460A22A8
:10436C004821FFF78FFF204606224921FFF78AFFDD
:10437C0020460A224A21FFF785FF204606224B21C0
:10438C00FFF780FF20460A224C21FFF77BFF2046D7
:10439C0006224D21FFF776FF20460A224E21FFF719
:1043AC0071FF204606224F21FFF76CFF20460A22A0
:1043BC005021FFF767FF204606225121FFF762FFCD
:1043CC0020460A225221FFF75DFF20460622532188
:1043DC00FFF758FF20460A225421FFF753FF2046CF
:1043EC0006225521FFF74EFF20460A225621FFF7E1
:1043FC0049FF204606225721FFF744FF20460A2298
:10440C005821FFF73FFF204604225D21FFF73AFFBA
:10441C0020460C225E21FFF735FF20460C22BDE81A
:10442C0010405E21FFF72EBF08B50021072001F0D8
:10443C001BFC0121072001F028FC01F06BFC01F0B2
:10444C00A7FABDE808405A20FFF737BF10B501F0B6
:10445C00B9F9184C4FF4165101F0A8F901F0B2F962
:10446C0000F0C3FF01F0AEF9214600F0CAFF01F0E5
:10447C00A9F9114900F0C5FF01F0A4F9214600F09B
:10448C00C0FF0221084601F0EFFBFFF7CDFFFFF75D
:10449C0029FE41F641710022084800F049FC052034
:1044AC0000F0F4FF01F08EF9BDE81040044900F073
:1044BC00A8BF00BF31620D0055620D00BCE50320A2
:1044CC0068620D0073B5124D124C134E284600F065
:1044DC0021FE2846114D1249224601F043FC284684
:1044EC0001F0B8F82246314628460E4D01F03AFC50
:1044FC000A225B23009311463C23284601F0EEF878
:10450C0022463146284602B0BDE8704001F02ABC74
:10451C00BCE50320B8E50320AB400D0008E6032002
:10452C00AD400D0020E603200023C0E913330360E7
:10453C00836243607047000070B504460D46083036
:10454C000D4900F0B7FE04F12C060B4904F11800DC
:10455C0000F0B0FE0849304600F0ACFE064904F10C
:10456C003C0000F0A7FE2046FFF7DEFF2946304650
:10457C0000F0B4FE204670BD21620D0010B504465B
:10458C00006800F0FDFAA06A00F0FAFAE06C00F0A6
:10459C00F7FA04F13C0000F042FE04F12C0000F0AC
:1045AC003EFE04F1180000F03AFE04F1080000F0A1
:1045BC0036FE204610BD38B5016D04460431C06C82
:1045CC0010EE105A00F0E4FAE064E8B1226DC5F385
:1045DC0007618154D4E913210A44C5F30741517092
:1045EC00D4E913210A44C5F307219170D4E91321AE
:1045FC000A4404F13C00D570236D04332365662115
:10460C00BDE8384000F093BE38BD00002DE9F04FF6
:10461C008BB0D0F82C9000AF804648460D46C7E9C9
:10462C00023201F0DDFD06460330800801F0E6FCA5
:10463C003F4B002201F0A6FB01F05AFDD8F83CA03C
:10464C00C6EB80068400504601F0CAFD0134834657
:10465C0004440130800801F0D1FC354B002201F0FC
:10466C0091FB01F045FDCBF1030303EB800BD8F874
:10467C0050303B605C441C44E21D22F00702ADEB61
:10468C00020D00212246684601F076FD484601F0F5
:10469C00A7FD49460246684601F060FD484601F018
:1046AC009FFD0DEB06022C211154484601F098FD9C
:1046BC007860504601F094FD796801310246881902
:1046CC006844514601F04AFD484601F089FD814697
:1046DC00504601F085FD484401303B68D8F84C1039
:1046EC00304458441A46684401F038FD2B68FE6883
:1046FC00D3F838800F4B3B6104360FCE07F1140C06
:10470C00ACE80F0033688CF800303A8907F11001DF
:10471C002846C0472B6822466946DB6828469847DE
:10472C002B6828461B6C98472C37BD46BDE8F08F8C
:10473C000000E03F54630D0008B5024B1B689B68FA
:10474C00019308BD6802030008B5024B1B68DB68C7
:10475C00019308BD6802030008B5024B1B689B68F7
:10476C00019308BD2C02030008B5024B1B68DB68E3
:10477C00019308BD2C02030008B5024B1B681B6992
:10478C00019308BD2C02030008B5024B1B685B6942
:10479C00019308BD2C02030008B5024B1B685B6932
:1047AC00019308BD6C02030008B5024B1B685B68E3
:1047BC00019308BD1802030008B5024B1B685B6926
:1047CC00019308BD1802030008B5024B1B685B6C13
:1047DC00019308BD4802030008B5024B1B689B6C93
:1047EC00019308BD4802030008B5024B1B685B69C6
:1047FC00019308BD6402030008B5024B1B681B6AD9
:10480C00019308BD6402030008B5024B1B685B6A88
:10481C00019308BD6402030008B5024B1B689B6A38
:10482C00019308BD6402030008B5024B1B681B68AA
:10483C00019308BD3C02030008B5024B1B68DB6802
:10484C00019308BD3C02030008B5024B1B681B69B1
:10485C00019308BD3C02030008B5024B1B685B6961
:10486C00019308BD3C02030008B5024B1B689B6911
:10487C00019308BD3C02030008B5024B1B68DB69C1
:10488C00019308BD3C02030008B5024B1B681B6A70
:10489C00019308BD3C02030008B5024B1B689B6AE0
:1048AC00019308BD3C02030008B5024B1B68DB6892
:1048BC00019308BD2802030008B5024B1B689B69D5
:1048CC00019308BD2802030008B5024B1B68DB6985
:1048DC00019308BD2802030008B5024B1B681B6A34
:1048EC00019308BD2802030008B5024B1B685B6AE4
:1048FC00019308BD2802030008B5024B1B689B6A94
:10490C00019308BD2802030008B5024B1B68DB6A43
:10491C00019308BD2802030008B5024B1B681B6BF2
:10492C00019308BD2802030008B5024B1B685B6BA2
:10493C00019308BD2802030008B5024B1B681B6CD1
:10494C00019308BD2802030008B5024B1B681B6DC0
:10495C00019308BD2802030008B5024B1B685B6875
:10496C00019308BD3802030008B5024B1B689B6914
:10497C00019308BD3802030008B5024B1B68DB69C4
:10498C00019308BD3802030008B5024B1B68DB6AB3
:10499C00019308BD3802030008B5024B1B685B6B22
:1049AC00019308BD3802030008B5024B1B689B6BD2
:1049BC00019308BD3802030008B5024B1B68DB6984
:1049CC00019308BD3002030008B5024B1B681B6A3B
:1049DC00019308BD3002030008B5024B1B681B682D
:1049EC00019308BD4C02030008B5024B1B685B68C1
:1049FC00019308BD4C02030008B5024B1B681B69F0
:104A0C00019308BD4C02030008B5024B1B685B699F
:104A1C00019308BD4C02030008B5024B1B689B694F
:104A2C00019308BD4C02030008B5024B1B68DB69FF
:104A3C00019308BD4C02030008B5024B1B681B6AAE
:104A4C00019308BD4C02030008B5024B1B685B6860
:104A5C00019308BD2002030008B5024B1B685B697B
:104A6C00019308BD2002030008B5034B1B68D3F863
:104A7C008830019308BD00002002030008B5034BE9
:104A8C001B68D3F89430019308BD0000200203008A
:104A9C0008B5024B1B681B68019308BD400203005C
:104AAC0008B5024B1B685B68019308BD400203000C
:104ABC0008B5024B1B689B68019308BD40020300BC
:104ACC0008B5024B1B68DB68019308BD400203006C
:104ADC0008B5024B1B681B69019308BD400203001B
:104AEC0008B5024B1B685B69019308BD40020300CB
:104AFC0008B5024B1B689B69019308BD400203007B
:104B0C0008B5024B1B68DB69019308BD400203002A
:104B1C0008B5024B1B681B6A019308BD40020300D9
:104B2C0008B5024B1B681B6B019308BD40020300C8
:104B3C0008B5024B1B685B6B019308BD4002030078
:104B4C0008B5024B1B681B6C019308BD40020300A7
:104B5C0008B5024B1B685B6C019308BD4002030057
:104B6C0008B5024B1B68DB6B019308BD44020300C4
:104B7C0008B5024B1B681B68019308BD1C0203009F
:104B8C0008B5024B1B685B68019308BD1C0203004F
:104B9C0008B5024B1B689B68019308BD1C020300FF
:104BAC0008B5024B1B685B6C019308BD1C0203002B
:104BBC00002240681146FFF7ABBF00224068114647
:104BCC00FFF7B6BF40680022FFF7AABF406800227B
:104BDC0081F00101FFF794BF002340681A46194683
:104BEC00FFF786BF002340681A461946FFF778BFC7
:104BFC00002240681146FFF76BBF00224068114647
:104C0C00FFF756BF406800220221FFF759BF00236F
:104C1C0040681A46FFF744BF024B03225A60024A0F
:104C2C001A60704744E6032088620D0010B50446F4
:104C3C0008462170FFF7C0FE00236360204610BDBC
:104C4C0010B50446006818B1FFF79AFF00232360E3
:104C5C0010BD10B50446FFF7F3FF204610BD000051
:104C6C0010B5094B094C022200201A60084B206039
:104C7C00A080A071A360FFF7E7FE2046054A064915
:104C8C00BDE8104001F06EB858E603204CE6032056
:104C9C000000FFFFB8E503205F4C0D0010B4046862
:104CAC00246BA4465DF8044B604703689B6C184763
:104CBC00808E7047028FC08E101A704707B503683C
:104CCC008DF80710DB6801220DF10701984703B03E
:104CDC005DF804FB10B503681B690446984728B1BE
:104CEC00E38EE26B591CE186D05C10BD4FF0FF30B7
:104CFC00FBE710B503681B690446984718B1E38EAF
:104D0C00E26BD05C10BD4FF0FF30FBE7704710B486
:104D1C0003460846DC6BD98E1A8F0368521ADB687F
:104D2C0021445DF8044B1847A0F11000FFF7EFBFCA
:104D3C0070B503688CB05B6A04460E4615469847FE
:104D4C0001231C22002105A8029301F015FA40F65C
:104D5C001C233046ADF81430FFF75EFD1122ADF880
:104D6C00160002210A20FFF71FFE0028606125DBD8
:104D7C000422009202AB40F6FF71FFF7F5FDE8B993
:104D8C0095B10390ADF8100003A9E8B2FFF704FD4C
:104D9C00A0B906230093606903AB41F20B0240F605
:104DAC00FF71FFF7E1FD48B960691C2205A9FFF707
:104DBC00D3FD18B9656401200CB070BD2368204682
:104DCC005B6A98470020F7E710B504464069002855
:104DDC0001DBFFF7D1FD4FF0FF3363610023E38666
:104DEC00238710BD70B50546C06BEE8E68B12B6C79
:104DFC009C1B944228BF14462246304401F0AEF965
:104E0C00EB8E2344EB86204670BD0446F1E7D0B50B
:104E1C0003681B6904460F461646984790B12368F1
:104E2C0020461B699847E38EE16B8642A8BF064675
:104E3C0019443246384601F091F9E38E3344E38647
:104E4C003046D0BD4FF0FF36FAE7000070B504468F
:104E5C00054B44F8043B01F1200506460FCD0FC469
:104E6C002B682370304670BD54630D00F0B5964628
:104E7C00026889B0976A0A4A02921C1D8C46064643
:104E8C000FCC03AD0FC523682B70BDF838300093E1
:104E9C00724602AB61463046B84709B0F0BD00BF60
:104EAC0054630D00F0B5036889B09F6A0C4B0293F4
:104EBC0000F1200604460FCE03AD0FC533682B70EE
:104ECC00A38EE28EE16B0093204602ABB8472368B9
:104EDC000546DB6920469847284609B0F0BD00BF5F
:104EEC0054630D00F0B54378022B8DB005460C468B
:104EFC00174604D1011D204600F0FCFB22E00A2BD2
:104F0C0025D11122002101A801F036F9AB6803B3B9
:104F1C0005F1080301AE05F1180C18685968324602
:104F2C0003C2083363451646F7D1062301A906A828
:104F3C0007AE8DF8143000F09BFB0FCE04340FC479
:104F4C00336823701FB16888FFF75EFC38800DB0A2
:104F5C00F0BDEB68002BDBD14FF6FF702E69FFF72D
:104F6C004BFC8642D4D105F11401C4E72DE9F04184
:104F7C0017468EB00022064601AB08461146019238
:104F8C00FFF7E2FB041E20DB019B2BB35B691BB319
:104F9C0002A800F05FFB019B0022586902A9FFF7F1
:104FAC00A1FF02A800F076FBB0B1336803ADD3F8D3
:104FBC0038800B4B08930FCD09AC0FC42B682370B2
:104FCC003A4608A93046C04704460198FFF7B4FB9F
:104FDC0020460EB0BDE8F0814FF0FF34F5E700BF7E
:104FEC0054630D002DE9F047D0F81490B9F1000F7F
:104FFC0090B005460E4690461C463CDB00293AD044
:10500C004FF01C0A09AF52460021384601F0B4F8A3
:10501C00CDF80CA0DCB100224FF47A70B4FBF0F3A5
:10502C00CDE9043200FB134358431023079206903A
:10503C00009341F206026B4440F6FF714846FFF7BD
:10504C0093FC044620B1204610B0BDE8F08708243C
:10505C0003ABCDE900736869234642463146FFF73E
:10506C0093FC041EEFDB05F1340205F11C013846FC
:10507C00FFF738FFE7E74FF0FF34E4E738B50546B4
:10508C0014462B7D062B084610D140F61C231380AA
:10509C00FFF7C2FB08342B1D24F8060C143553F80B
:1050AC00042B44F8042BAB42F9D138BD042BFCD1B2
:1050BC004FF404731380FFF7AFFB60806868FFF751
:1050CC009BFB6060F1E72DE9F0438BB003AF4FF031
:1050DC001C09984604460D46164600214A46384699
:1050EC0001F04AF8BDF848103A464046FFF7C6FFB3
:1050FC009DF80D3053B1CDE900796069002332463B
:10510C002946FFF749FC0BB0BDE8F0834FF0FF30A8
:10511C00F9E7000038B500254FF47A73C0E9015364
:10512C000B4B03F108026C3303614FF0FF33044661
:10513C00026043611C3000F08DFA4FF40073C4E937
:10514C001035E5862587E56384F84850204638BD40
:10515C00BC620D0010B590F84830044623B1C06B0A
:10516C0010B1012100F003FE0023E36384F8483002
:10517C002364E386238710BD70B5044616460D469E
:10518C00FFF7E8FF0023E66323642EB12564206C4F
:10519C00003818BF012070BD002DF8D02846FEF74E
:1051AC0072FF0123E06384F848300028EFD0EDE76C
:1051BC00F8B51746C26B05460C461AB9016C09B115
:1051CC00FFF7DAFF04340FCC05F120060FC6236875
:1051DC0033700023286CAF86EB862B87F8BD37B570
:1051EC00C26B04460B462AB9016C19B10193FFF747
:1051FC00C3FF019BE16B0022E286228741B1226C46
:10520C0032B12068056B2046A8470028C8BF20870C
:10521C0023681B69204603B0BDE83040184710B521
:10522C0004460068FFF7ACFC204610BD10B50446E0
:10523C00006808B1FFF7A4FC0023C4E90133236024
:10524C0010BD38B504460D4600680131FFF7A0FCCF
:10525C0010B1C4E90005012038BD10B5036804463F
:10526C0023B143688B4201D3012010BD2046FFF7C8
:10527C00E8FF0028F9D0A368002BF5D12268137041
:10528C00F2E737B50D46114601920446FFF7E5FFEC
:10529C00019A28B92046FFF7C9FF204603B030BD5C
:1052AC00A2602946206800F059FF2268A3680021FB
:1052BC00D154F2E7002313B5C0E9003304468360F0
:1052CC00037341B10846019100F08AFF019902462F
:1052DC002046FFF7D6FF204602B010BD13B504469A
:1052EC0059B10846019100F07BFF01990246204616
:1052FC00FFF7C7FF204602B010BDFFF797FFF9E795
:10530C0070B505460E4609B9002070BD6AB18468B7
:10531C0014442146FFF7A1FF0028F5D02868AB689C
:10532C003146184400F054FFAC600120EDE707B59E
:10533C0000238DF80410012201A98DF80530FFF728
:10534C00DFFF03B05DF804FB10B50446006808B13C
:10535C00FFF742FA204610BD10B5064C002320463C
:10536C002360FFF731FA2046034A0449BDE8104098
:10537C0000F0F8BC5CE60320B8E5032055530D00A3
:10538C00F8B506460D468F180024BD420CD0336884
:10539C0015F8011B9B6830469847031E01DB1C4423
:1053AC00F3E7002C08BF1C462046F8BD13B5044695
:1053BC00084659B1019100F013FF23680199DB688D
:1053CC000246204602B0BDE81040184702B010BD9E
:1053DC0008B5FFF7EBFF08BD03689B6818470A6820
:1053EC000B46126801461846104738B50D21054684
:1053FC00FFF7F2FF0A2104462846FFF7EDFF204491
:10540C0038BD38B50546FFF7D1FF04462846FFF7EF
:10541C00ECFF204438BD38B50546FFF7E0FF0446E5
:10542C002846FFF7E2FF204438BD30B58BB000238F
:10543C008DF82430012A98BF0A2209AC0D46B1FB25
:10544C00F2F101FB125303F0FF03092B94BF30332D
:10545C003733DBB2AA4204F8013DEFD92146FFF7FE
:10546C00A5FF0BB030BD0000014B024A1A6070471B
:10547C0060E603202C630D00024B1A68024B1A6085
:10548C00704700BF50E5032064E603200021FFF7BE
:10549C00E3BA10B58368044613B10322014698475A
:1054AC00204610BD10B50446FFF7F3FF204610BD93
:1054BC000348044A04490023836000F053BC00BF36
:1054CC0068E60320B8E50320B1540D00014B1860C9
:1054DC00704700BF54E5032008B50B4B43B100F0F7
:1054EC0071F903681B699847002801DDAFF3008050
:1054FC00064B43B100F0E4F903681B699847002898
:10550C0001DDAFF3008008BD0000000000000000CA
:10551C0008B5FFF7E1FFFFF74FF9014B186008BD25
:10552C00D4E703200248034A0349121A00F016BEBE
:10553C0000F4032004F4032090640D0007B500234D
:10554C0000931A466FF07701FFF798FA03B05DF8F5
:10555C0004FB000007B543880A2B08D0502B0BD155
:10556C00094B1B684BB103B05DF804EB1847FFF710
:10557C00E5FF03B05DF804FB002300931A466FF0BF
:10558C007701FFF77BFAF4E77CE6032038B5124C81
:10559C001248134D0021FFF703FB2368AB42114B5C
:1055AC000CBF012200221A7002D0FFF7BBFF25604E
:1055BC00FFF7FAF8044600F0E7FD0B4B13B1204659
:1055CC00AFF3008000210848FFF7CAFABDE8384065
:1055DC0006480021FFF748BA00F40320D9540D0007
:1055EC001E1C279A78E603200000000061550D0070
:1055FC00F0B5037D062B8DB00E4600F104074FF07D
:10560C00000412D000F1080515F8011D0A223046DD
:10561C00FFF70BFFAF42044419D0002CF4D02E211D
:10562C003046FFF7D9FE0444EEE72F236A4639468D
:10563C000A208DF80040FFF7D7F8684600F0D0FD3F
:10564C0033680246DB686946304698470446204674
:10565C000DB0F0BD10B5054B0446112240F8043BCB
:10566C00002100F089FD204610BD00BF54630D00E1
:10567C000346074A10B543F8042B01F1100251F808
:10568C00044B43F8044B9142F9D10A781A7010BDBF
:10569C0054630D00037D042B04D14068003818BFFF
:1056AC0001207047062B07D143683BB983682BB99F
:1056BC00C3681BB90069F1E70020704701207047EF
:1056CC0010B59DF8084044EA032343EA024242EA3B
:1056DC00016104234160037510BD000037B5044D12
:1056EC0005609DF818500095FFF7EAFF03B030BD38
:1056FC0054630D0013B5CB7800938B784A780978F6
:10570C00FFF7DEFF02B010BD41747047704708B55B
:10571C000021007CFFF780F940EAE07008BD08B575
:10572C000121007CFFF778F940EAE07008BD08B56C
:10573C00007CFFF769F920EAE07008BD08B5007C31
:10574C00FFF75AF920EAE07008BD13B50446007C57
:10575C000191FFF759F90028019901DC607C20B117
:10576C00207CFFF761F920EAE07002B010BD007CEC
:10577C00FFF762B910B51421044600F0F8FA204680
:10578C0010BD000010B54FF47A7304460846002192
:10579C00C4E90113044B2360012320746374114684
:1057AC00FFF71AF9204610BD68630D00007C00223B
:1057BC00FFF71AB910B514220446002100F0DCFCE6
:1057CC00204610BD10B5104C88B003A8FFF7F2FFAF
:1057DC002178BFF35B8F11F0010111D120460191AB
:1057EC00FEF755FC019958B103AA0848FFF7CAFF08
:1057FC002046FEF751FC064A0649044800F0B2FA6E
:10580C00024808B010BD00BF80E6032084E60320E8
:10581C00B8E5032019570D0070474174704708B55F
:10582C00007CFFF739F820EAE07008BD08B5007C71
:10583C00FFF70AF820EAE07008BD08B5007CFFF716
:10584C0013F840EAE07008BD08B5007CFFF704F8D7
:10585C0040EAE07008BD007CFFF70EB837B5457C18
:10586C0004462DB1207C03B0BDE83040FEF7E4BF08
:10587C00007C0191FFF710F800280199F2DC284612
:10588C0003B030BD10B51421044600F070FA204668
:10589C0010BD000010B54FF0000C04460846114630
:1058AC004FF47A72C4E901C2044A226001222074C6
:1058BC0062741A46FEF7B8FF204610BD98630D00BF
:1058CC0013B50E4C2178BFF35B8F11F0010112D18F
:1058DC0020460191FEF7DBFB019960B1084A094BA8
:1058EC000948FFF7D7FF2046FEF7D6FB074A0849C1
:1058FC00054800F037FA044802B010BD98E60320C2
:10590C009CE6032020E70320A4E70320B8E503204E
:10591C0025580D007047F8B5064615460C468F18ED
:10592C00BC4206D0336814F8011B9B68304698477C
:10593C00F6E72846F8BD007C0022FEF7CDBF007CC0
:10594C000021FEF7D1BF007C0021FEF7D5BF007C03
:10595C000021FEF7D9BF007C0021FEF7DDBF10B59A
:10596C001421044600F003FA204610BD10B54FF484
:10597C007A73044608460021C4E90113034B2360E3
:10598C0020741146FEF7D8FF204610BDC8630D00E9
:10599C000023007C1A461946FEF786BF7FB500220D
:1059AC001423CDE90122ADF804300B788DF80830C2
:1059BC004B680393CB680493007C0B7A059301A985
:1059CC00FEF7C2FF07B05DF804FB1FB5003B8DF876
:1059DC0000104FF06401039118BF01236946019236
:1059EC008DF80830FFF7DAFF05B05DF804FB0123F2
:1059FC00FFF7EBBF007C0022FEF75EBFC9B2FFF7DA
:105A0C00F9BF007C0022FEF75FBF0121FFF7F9BF51
:105A1C00002240681146FFF75BB80022406811462F
:105A2C00FFF776B8002240681146FFF781B840684E
:105A3C000022FFF775B84068002281F00101FFF7E2
:105A4C005FB8002340681A461946FFF751B8002387
:105A5C0040681A461946FFF743B8002240681146C1
:105A6C00FFF726B8406800220221FFF729B800236F
:105A7C0040681A46FFF714B8024B04225A60024AD7
:105A8C001A607047B8E70320F0630D0000234068EC
:105A9C001A46FFF705B8406800220221FFF710B83C
:105AAC00002240681146FFF703B8002240681146F7
:105ABC00FFF70EB8002340681A461946FFF710B8D6
:105ACC00002340681A461946FFF712B840680021B7
:105ADC00FFF736B840680021FFF73AB8406800225B
:105AEC0081F00101FFF70CB840680022FFF718B8ED
:105AFC00002240681146FFF71BB80022406811468F
:105B0C00FFF706B82DE9F043002495B016460D4674
:105B1C000746FFF79FFD214618220EA8009400F0BF
:105B2C002BFB4023CDE90C3421466B460CAA3046A6
:105B3C00FEF70AFE0446002846D102460121686899
:105B4C00FEF7C6FF0221804622466868FEF7C0FFBA
:105B5C00009E81462146002E36D0002934D1736830
:105B6C00022B03D00A2B0BD0F669F4E7B8F1000F27
:105B7C0004D0716938460431FFF7BCFD4146F3E7A8
:105B8C00B9F1000F01D14946EEE77469102201A862
:105B9C0000F0F2FA06238DF8143001AD04F108037D
:105BAC001834186859682A4603C20833A3421546AC
:105BBC00F7D101A906A807ADFFF75AFD0FCD3C1D83
:105BCC000FC42B682370DEE70098FEF7B5FD38464E
:105BDC0015B0BDE8F0830000024B034A1A600022A6
:105BEC005A607047C0E703202C640D00232813B5BE
:105BFC0002D9002002B010BDA0F10B03022B1AD861
:105C0C00174C2178BFF35B8F11F001010BD12046AB
:105C1C000191FEF73CFA019928B11248FFF706F8FA
:105C2C002046FEF739FA0F4B1878FEF7CDFE002808
:105C3C00DFD10120DEE7012809D800F06BF8002144
:105C4C00007CFEF771FE80F00100C0B2D2E709388B
:105C5C000128EED8FFF734FE007CFEF715FEF2E7C4
:105C6C00C8E70320CCE70320232838B504460D46AB
:105C7C000AD8FF2908D0FFF7B9FF28B129462046DA
:105C8C00BDE83840FEF768BD38BD38B504460D4652
:105C9C00FEF76AFDFF2810D0062804D84D2323FAFE
:105CAC0000F0C30709D42046FFF7A0FF28B129460E
:105CBC002046BDE83840FEF75FBD38BD10B5044640
:105CCC00FEF752FD031FDBB2012B08D92046FFF76C
:105CDC008DFF20B12046BDE81040FEF755BD0020D9
:105CEC0010BD000038B50023202543801423044642
:105CFC000380856005610649284600F03AF804499E
:105D0C006060284600F035F8E060204638BD00BFE2
:105D1C0060640D0030B50F4D2978BFF35B8F11F027
:105D2C00010487B013D12846FEF7B1F978B101A868
:105D3C00FFF7D8FF01AA21460748FFF717FE2846B0
:105D4C00FEF7AAF9054A0649034800F00BF8024889
:105D5C0007B030BDD8E70320DCE70320B8E503200B
:105D6C0021590D000B460146184600F0E9B9FEF723
:105D7C008CB9FEF788B9000081F0004102E000BF49
:105D8C0083F0004330B54FEA41044FEA430594EAEF
:105D9C00050F08BF90EA020F1FBF54EA000C55EA2A
:105DAC00020C7FEA645C7FEA655C00F0E2804FEAFB
:105DBC005454D4EB5555B8BF6D420CDD2C4480EADD
:105DCC00020281EA030382EA000083EA010180EA0D
:105DDC00020281EA0303362D88BF30BD11F0004F5B
:105DEC004FEA01314FF4801C4CEA113102D0404291
:105DFC0061EB410113F0004F4FEA03334CEA1333CC
:105E0C0002D0524263EB430394EA050F00F0A780E3
:105E1C00A4F10104D5F1200E0DDB02FA0EFC22FADE
:105E2C0005F2801841F1000103FA0EF2801843FAD2
:105E3C0005F359410EE0A5F120050EF1200E012AC3
:105E4C0003FA0EFC28BF4CF0020C43FA05F3C01801
:105E5C0051EBE37101F0004507D54FF0000EDCF17A
:105E6C00000C7EEB00006EEB0101B1F5801F1BD323
:105E7C00B1F5001F0CD349085FEA30004FEA3C0C27
:105E8C0004F101044FEA445212F5800F80F09A801D
:105E9C00BCF1004F08BF5FEA500C50F1000041EB21
:105EAC00045141EA050130BD5FEA4C0C404141EB25
:105EBC000101013C28BFB1F5801FE9D291F0000F20
:105ECC0004BF01460020B1FA81F308BF2033A3F1CF
:105EDC000B03B3F120020CDA0C3208DD02F1140CC6
:105EEC00C2F10C0201FA0CF021FA02F10CE002F101
:105EFC001402D8BFC2F1200C01FA02F120FA0CFCFA
:105F0C00DCBF41EA0C019040E41AA2BF01EB045142
:105F1C00294330BD6FEA04041F3C1CDA0C340EDC40
:105F2C0004F11404C4F1200220FA04F001FA02F383
:105F3C0040EA030021FA04F345EA030130BDC4F141
:105F4C000C04C4F1200220FA02F001FA04F340EA36
:105F5C000300294630BD21FA04F0294630BD94F0E7
:105F6C00000F83F4801306BF81F480110134013DCE
:105F7C004EE77FEA645C18BF7FEA655C29D094EA3F
:105F8C00050F08BF90EA020F05D054EA000C04BFBD
:105F9C001946104630BD91EA030F1EBF00210020A8
:105FAC0030BD5FEA545C05D14000494128BF41F047
:105FBC00004130BD14F580043CBF01F5801130BDAB
:105FCC0001F0004545F0FE4141F470014FF0000036
:105FDC0030BD7FEA645C1ABF194610467FEA655CE7
:105FEC001CBF0B46024650EA013406BF52EA033589
:105FFC0091EA030F41F4002130BD00BF90F0000F77
:10600C0004BF0021704730B54FF4806404F13204B2
:10601C004FF000054FF0000150E700BF90F0000F6B
:10602C0004BF0021704730B54FF4806404F1320492
:10603C0010F0004548BF40424FF000013EE700BF62
:10604C0042004FEAE2014FEA31014FEA02701FBFF2
:10605C0012F07F4393F07F4F81F06051704732F024
:10606C007F4208BF704793F07F4F04BF41F400217B
:10607C00704730B54FF4607401F0004521F00041D9
:10608C001CE700BF50EA010208BF704730B54FF063
:10609C0000050AE050EA010208BF704730B511F064
:1060AC00004502D5404261EB41014FF4806404F19C
:1060BC0032045FEA915C3FF4D8AE4FF003025FEA22
:1060CC00DC0C18BF03325FEADC0C18BF033202EBA6
:1060DC00DC02C2F1200300FA03FC20FA02F001FA00
:1060EC0003FE40EA0E0021FA02F11444BDE600BFA3
:1060FC004FEA410212F5001215D211D56FF47873E4
:10610C00B3EB625212D94FEAC12343F0004343EA86
:10611C00505311F0004F23FA02F018BF4042704761
:10612C004FF00000704750EA013005D111F00040EB
:10613C0008BF6FF0004070474FF00000704700BF81
:10614C0010B5054C13462CB10A4601460220AFF39C
:10615C00008010BD2046FCE7000000000A4491427C
:10616C0000F1FF3300D1704710B511F8014B03F863
:10617C00014F9142F9D110BD02440346934200D124
:10618C00704703F8011BF9E738B50D4B1D68AB6B75
:10619C0004467BB91820FEF7EBFC0A4A0A4BA863AD
:1061AC00C0E90023094B83600B2383810122002368
:1061BC00C0E90423AB6B00221C615A6138BD00BFDF
:1061CC0054E503200E33CDAB34126DE6ECDE050046
:1061DC00034611F8012B03F8012B002AF9D1704763
:1061EC00034613F8012B002AFBD1181A013870470B
:1061FC001D400D0059400D0081400D0085400D00E3
:10620C00000000004152474F4E204950202844487E
:10621C004350293A20002F746F75636800707265C3
:10622C0073736564002D2D2D2D2D2D2D2D2D2D2DC4
:10623C002D2D2D2D2D2D2D2D2D2D2D2D2D2D2D2D82
:10624C002D2D2D2D2D2D2D2D004D697374616B650C
:10625C006E205265616C697469657300436F6D7073
:10626C006C6574656420766F6964207365747570F1
:10627C000000000000000000000000001B4C0D009E
:10628C00114C0D00074C0D00FD4B0D00F14B0D009A
:10629C00E54B0D00D95A0D00E15A0D00D94B0D00FC
:1062AC00D14B0D00C74B0D00BD4B0D00115B0D000C
:1062BC000000000000000000AD400D00DB400D00B0
:1062CC00C94C0D00F14D0D00C14C0D00E14C0D0001
:1062DC00FF4C0D00194D0D003D4D0D00D54D0D0021
:1062EC00D3500D00794E0D00F14F0D00A94C0D004F
:1062FC00BD510D00794F0D00B14E0D00EB510D004D
:10630C001B4E0D00B74C0D00594E0D00BD4C0D0031
:10631C001B4D0D00F0FFFFFF00000000354D0D0080
:10632C006170700025592D256D2D25645425483A32
:10633C00254D3A2553257A0061736374696D6500A8
:10634C000000000000000000FD550D00AB400D00EA
:10635C00CD400D00000000000000000019570D009A
:10636C0081570D0057570D008D530D0049570D00E7
:10637C001B570D002B570D007B570D003B570D0085
:10638C0015570D00000000000000000025580D00FE
:10639C0091580D0069580D008D530D0039580D00A2
:1063AC0055580D0047580D0063580D0027580D0027
:1063BC002B580D00000000000000000021590D00BA
:1063CC006B590D0043590D0023590D004B590D000D
:1063DC0053590D005B590D0063590D00000000006E
:1063EC00000000007B5A0D00715A0D00675A0D0019
:1063FC001D5A0D005B5A0D004F5A0D00D95A0D0055
:10640C00E15A0D00435A0D003B5A0D00315A0D0054
:10641C00275A0D00115B0D00000000000000000069
:10642C00995A0D00A35A0D00AD5A0D00B75A0D0024
:10643C00C15A0D00CD5A0D00D95A0D00E15A0D006C
:10644C00E95A0D00F55A0D00FD5A0D00075B0D00C1
:10645C00115B0D0000000000D1440D00254C0D0017
:10646C006D4C0D0065530D0075540D0085540D00D9
:10647C00BD540D00855A0D00E55B0D0000000000B9
:04648C00000000000C
:046490000000000008
:10649400401F000044630D0058E503200000000085
:1064A40000000000000000000000000000000000E8
:1064B40000000000000000000000000000000000D8
:1064C40000000000000000000000000000000000C8
:1064D40000000000000000000000000000000000B8
:1064E40000000000000000000000000000000000A8
:0C64F4000000000000000000000000009C
:10650000FFFFFFFF00000102030405060708090A58
:106510000B0C0D0E0F101112131415161718191A53
:086520001B1C1D1E1F2028009A
:04652800785634125B
:04000003D000401CCD
:00000001FF
