:02000002D0002C
:1040000000400D0018660D00000006000C000501C0
:08401000040135080000000066
:04401800E4620D0051
:10401C0009480A49884208B505D0094A824202D0AB
:10402C00121A02F00FF90748074A0021121A02F07F
:10403C0017F9014808BD00BF44E5032084650D0055
:10404C00B0E50320B0E50320F0E7032070B5074E80
:10405C00074C01F0F9FAA41BA4080025A54200D1D5
:10406C0070BD56F8043B98470135F7E758650D00CD
:10407C007C650D0000F038BA08B500F045F9BDE8D4
:10408C00084001F0A3BA00F0D1BD00F0D7BD007814
:10409C00B0FA80F0400970470123037070477047F5
:1040AC0010B5064B036064330446036100F0EAFE6E
:1040BC00204601F0ADF8204610BD00BFB8630D00DE
:1040CC0010B51821044601F0C6FE204610BD10B5EF
:1040DC000446FFF7E5FF20464C2101F0BCFE2046CC
:1040EC0010BD000030B5144C0023606887B01A4630
:1040FC00194600F033FD00226068114600F046FDC1
:10410C000028F8D0052001F01FFA01F0B9FB0B498B
:10411C0001F0BCF901F0B4FB0022114605466068C1
:10412C0000F014FD811C684601F000FB694628462E
:10413C0001F0CFF907B030BDB8E70320F8620D00ED
:10414C0030B59FB001688DED010A09A800F042FA64
:10415C000C4D9DED010A09A800F07BFA0A4B039364
:10416C000FCD04AC0FC42B682370084B08491B6897
:10417C0003AA09A800F098FA09A800F04DFA1FB09C
:10418C0030BD00BF24E6032048640D0044E5032045
:10419C00B4E5032000B52DED028B132085B001F0A2
:1041AC00FEFD07EE900AB8EEE78AF7EE007A1B4B9D
:1041BC00B4EEE78AF1EE10FA83ED008AF0EE678A2E
:1041CC000BDD1749684601F0D3F86846B0EE480A93
:1041DC00FFF7B6FF684601F080F8122001F0DFFD12
:1041EC0007EE900AB8EEE78A0E4BB4EEE88AF1EED1
:1041FC0010FA83ED008A0BDD0B49684601F0B8F824
:10420C006846B0EE480AFFF79BFF684601F065F878
:10421C0005B0BDEC028B5DF804FB00BF18E6032073
:10422C000A630D001CE6032011630D00F0B5002499
:10423C000D4D0E4E85B0274615F8013B01347BB170
:10424C003146684601F094F807EE904A6846B8EE9D
:10425C00E70AFFF775FF684601F03FF805F8017CA7
:10426C000C2CE9D105B0F0BD38E6032019630D0024
:10427C0008B580B201F080FD003818BF012008BDE0
:10428C002DE9F8430720FFF7F3FF0446A0BB01F02C
:10429C00B5FD02225A2101F008FC01F0AFFD0368C4
:1042AC00DFF860805B699847064601F0A7FD03685C
:1042BC005B699847F6B246EA0020114E85B24FF082
:1042CC00010945FA04F313F0010317D001F0D8FAF1
:1042DC00414601F0DBF801F0D3FA0A2207462146E9
:1042EC0001F001F9384601F0DEF886F8009001344F
:1042FC000C2C06F10106E4D1BDE8F8833370F6E727
:10430C0038E6032020630D0008B5502001F01CF99D
:10431C00FFF7B6FFFFF78AFFBDE80840FFF73ABF8B
:10432C0070B5064614460D4601F068FD314601F0A5
:10433C00C3FB01F063FD036829469B68984701F0B5
:10434C005DFD036821469B68984701F057FDBDE869
:10435C00704001F0B8BB10B5002204465E21FFF797
:10436C00DFFF204601222B21FFF7DAFF2046012236
:10437C002C21FFF7D5FF204600222D21FFF7D0FF7F
:10438C00204600222E21FFF7CBFF204601222F21B1
:10439C00FFF7C6FF204601223021FFF7C1FF204660
:1043AC00FF223121FFF7BCFF204602223221FFF70A
:1043BC00B7FF204606224121FFF7B2FF20460A2212
:1043CC004221FFF7ADFF204606224321FFF7A8FF4D
:1043DC0020460A224421FFF7A3FF2046062245214E
:1043EC00FFF79EFF20460A224621FFF799FF204641
:1043FC0006224721FFF794FF20460A224821FFF7A7
:10440C008FFF204606224921FFF78AFF20460A2209
:10441C004A21FFF785FF204606224B21FFF780FF3C
:10442C0020460A224C21FFF77BFF204606224D2115
:10443C00FFF776FF20460A224E21FFF771FF204638
:10444C0006224F21FFF76CFF20460A225021FFF76E
:10445C0067FF204606225121FFF762FF20460A2201
:10446C005221FFF75DFF204606225321FFF758FF2C
:10447C0020460A225421FFF753FF204606225521DD
:10448C00FFF74EFF20460A225621FFF749FF204630
:10449C0006225721FFF744FF20460A225821FFF736
:1044AC003FFF204604225D21FFF73AFF20460C22F5
:1044BC005E21FFF735FF20460C22BDE810405E213F
:1044CC00FFF72EBF08B50021072001F02BFC0121BE
:1044DC00072001F038FC01F091FC01F0B7FABDE8BF
:1044EC0008405A20FFF737BF10B501F0C9F9184C36
:1044FC004FF4165101F0B8F901F0C2F900F0D3FFF6
:10450C0001F0BEF9214600F0DAFF01F0B9F91149CA
:10451C0000F0D5FF01F0B4F9214600F0D0FF0221E4
:10452C00084601F0FFFBFFF7CDFFFFF7DBFD41F67F
:10453C0041710022084800F059FC052001F004F8F4
:10454C0001F09EF9BDE81040044900F0B8BF00BF6F
:10455C0028630D004C630D00B4E503205F630D0070
:10456C0073B5124D124C134E284600F031FE2846FE
:10457C00114D1249224601F069FC284601F0C8F899
:10458C002246314628460E4D01F060FC0223009372
:10459C00A822C021284601F0FFF8224631462846C1
:1045AC0002B0BDE8704001F051BC00BFB4E503207F
:1045BC00B0E50320AB400D0000E60320AD400D003C
:1045CC0020E603200023C0E91333036083624360B9
:1045DC007047000070B504460D4608300D4900F0D8
:1045EC00C7FE04F12C060B4904F1180000F0C0FEC4
:1045FC000849304600F0BCFE064904F13C0000F0CE
:10460C00B7FE2046FFF7DEFF2946304600F0C4FE19
:10461C00204670BD09630D0010B50446006800F01B
:10462C000DFBA06A00F00AFBE06C00F007FB04F144
:10463C003C0000F052FE04F12C0000F04EFE04F1A0
:10464C00180000F04AFE04F1080000F046FE204677
:10465C0010BD38B5016D04460431C06C10EE105A13
:10466C0000F0F4FAE064E8B1226DC5F307618154FF
:10467C00D4E913210A44C5F307415170D4E913213D
:10468C000A44C5F307219170D4E913210A4404F1BB
:10469C003C00D570236D043323656621BDE838409A
:1046AC0000F0A3BE38BD00002DE9F04F8BB0D0F860
:1046BC002C9000AF804648460D46C7E9023201F007
:1046CC0003FE06460330800801F00CFD3F4B002230
:1046DC0001F0CCFB01F080FDD8F83CA0C6EB8006C5
:1046EC008400504601F0F0FD01348346044401304F
:1046FC00800801F0F7FC354B002201F0B7FB01F00C
:10470C006BFDCBF1030303EB800BD8F850303B600F
:10471C005C441C44E21D22F00702ADEB020D0021AB
:10472C002246684601F09CFD484601F0CDFD494605
:10473C000246684601F086FD484601F0C5FD0DEBCA
:10474C0006022C211154484601F0BEFD78605046FB
:10475C0001F0BAFD79680131024688196844514666
:10476C0001F070FD484601F0AFFD8146504601F066
:10477C00ABFD484401303B68D8F84C1030445844E9
:10478C001A46684401F05EFD2B68FE68D3F8388049
:10479C000F4B3B6104360FCE07F1140CACE80F0045
:1047AC0033688CF800303A8907F110012846C0476D
:1047BC002B6822466946DB68284698472B682846B2
:1047CC001B6C98472C37BD46BDE8F08F0000E03FCE
:1047DC0048640D0008B5024B1B689B68019308BD2B
:1047EC006802030008B5024B1B68DB68019308BD27
:1047FC006802030008B5024B1B685B68019308BD97
:10480C002C02030008B5024B1B689B68019308BD82
:10481C002C02030008B5024B1B68DB68019308BD32
:10482C002C02030008B5024B1B681B69019308BDE1
:10483C002C02030008B5024B1B685B69019308BD91
:10484C002C02030008B5024B1B681B6B019308BDBF
:10485C002C02030008B5024B1B685B69019308BD71
:10486C006C02030008B5024B1B685B68019308BD22
:10487C001802030008B5024B1B685B69019308BD65
:10488C001802030008B5024B1B685B6C019308BD52
:10489C004802030008B5024B1B689B6C019308BDD2
:1048AC004802030008B5024B1B685B69019308BD05
:1048BC006402030008B5024B1B681B6A019308BD18
:1048CC006402030008B5024B1B685B6A019308BDC8
:1048DC006402030008B5024B1B689B6A019308BD78
:1048EC006402030008B5024B1B681B68019308BDEA
:1048FC003C02030008B5024B1B68DB68019308BD42
:10490C003C02030008B5024B1B681B69019308BDF0
:10491C003C02030008B5024B1B685B69019308BDA0
:10492C003C02030008B5024B1B689B69019308BD50
:10493C003C02030008B5024B1B68DB69019308BD00
:10494C003C02030008B5024B1B681B6A019308BDAF
:10495C003C02030008B5024B1B689B6A019308BD1F
:10496C003C02030008B5024B1B68DB68019308BDD1
:10497C002802030008B5024B1B689B69019308BD14
:10498C002802030008B5024B1B68DB69019308BDC4
:10499C002802030008B5024B1B681B6A019308BD73
:1049AC002802030008B5024B1B685B6A019308BD23
:1049BC002802030008B5024B1B689B6A019308BDD3
:1049CC002802030008B5024B1B68DB6A019308BD83
:1049DC002802030008B5024B1B681B6B019308BD32
:1049EC002802030008B5024B1B685B6B019308BDE2
:1049FC002802030008B5024B1B681B6C019308BD11
:104A0C002802030008B5024B1B681B6D019308BDFF
:104A1C002802030008B5024B1B685B68019308BDB4
:104A2C003802030008B5024B1B689B69019308BD53
:104A3C003802030008B5024B1B68DB69019308BD03
:104A4C003802030008B5024B1B68DB6A019308BDF2
:104A5C003802030008B5024B1B685B6B019308BD61
:104A6C003802030008B5024B1B689B6B019308BD11
:104A7C003802030008B5024B1B68DB69019308BDC3
:104A8C003002030008B5024B1B681B6A019308BD7A
:104A9C003002030008B5024B1B681B68019308BD6C
:104AAC004C02030008B5024B1B685B68019308BD00
:104ABC004C02030008B5024B1B681B69019308BD2F
:104ACC004C02030008B5024B1B685B69019308BDDF
:104ADC004C02030008B5024B1B689B69019308BD8F
:104AEC004C02030008B5024B1B68DB69019308BD3F
:104AFC004C02030008B5024B1B681B6A019308BDEE
:104B0C004C02030008B5024B1B685B68019308BD9F
:104B1C002002030008B5024B1B685B69019308BDBA
:104B2C002002030008B5034B1B68D3F888300193AF
:104B3C0008BD00002002030008B5034B1B68D3F826
:104B4C009430019308BD00002002030008B5024B0D
:104B5C001B681B68019308BD4002030008B5024B9B
:104B6C001B685B68019308BD4002030008B5024B4B
:104B7C001B689B68019308BD4002030008B5024BFB
:104B8C001B68DB68019308BD4002030008B5024BAB
:104B9C001B681B69019308BD4002030008B5024B5A
:104BAC001B685B69019308BD4002030008B5024B0A
:104BBC001B689B69019308BD4002030008B5024BBA
:104BCC001B68DB69019308BD4002030008B5024B6A
:104BDC001B681B6A019308BD4002030008B5024B19
:104BEC001B681B6B019308BD4002030008B5024B08
:104BFC001B685B6B019308BD4002030008B5024BB8
:104C0C001B681B6C019308BD4002030008B5024BE6
:104C1C001B685B6C019308BD4002030008B5024B96
:104C2C001B68DB6B019308BD4402030008B5024B03
:104C3C001B681B68019308BD1C02030008B5024BDE
:104C4C001B685B68019308BD1C02030008B5024B8E
:104C5C001B689B68019308BD1C02030008B5024B3E
:104C6C001B685B6C019308BD1C02030000224068AA
:104C7C001146FFF7ABBF002240681146FFF7B6BFE5
:104C8C0040680022FFF7AABF4068002281F00101B2
:104C9C00FFF794BF002340681A461946FFF786BFFA
:104CAC00002340681A461946FFF778BF0022406877
:104CBC001146FFF76BBF002240681146FFF756BF45
:104CCC00406800220221FFF759BF002340681A46B2
:104CDC00FFF744BF024B03225A60024A1A60704726
:104CEC0044E603207C630D0010B504460846217091
:104CFC00FFF7C0FE00236360204610BD10B50446CC
:104D0C00006818B1FFF79AFF0023236010BD10B59F
:104D1C000446FFF7F3FF204610BD000010B5094B09
:104D2C00094C022200201A60084B2060A080A07160
:104D3C00A360FFF7E7FE2046054A0649BDE8104090
:104D4C0001F084B858E603204CE603200000FFFF76
:104D5C00B0E503201B4D0D0010B40468246BA44671
:104D6C005DF8044B604703689B6C1847808E704756
:104D7C00028FC08E101A704707B503688DF80710A4
:104D8C00DB6801220DF10701984703B05DF804FBC5
:104D9C0010B503681B690446984728B1E38EE26B93
:104DAC00591CE186D05C10BD4FF0FF30FBE710B50D
:104DBC0003681B690446984718B1E38EE26BD05C1C
:104DCC0010BD4FF0FF30FBE7704710B403460846A8
:104DDC00DC6BD98E1A8F0368521ADB6821445DF89C
:104DEC00044B1847A0F11000FFF7EFBF70B5036834
:104DFC008CB05B6A04460E461546984701231C226C
:104E0C00002105A8029301F02BFA40F61C23304632
:104E1C00ADF81430FFF75EFD1122ADF8160002213B
:104E2C000A20FFF71FFE0028606125DB0422009298
:104E3C0002AB40F6FF71FFF7F5FDE8B995B10390B1
:104E4C00ADF8100003A9E8B2FFF704FDA0B90623E2
:104E5C000093606903AB41F20B0240F6FF71FFF760
:104E6C00E1FD48B960691C2205A9FFF7D3FD18B90B
:104E7C00656401200CB070BD236820465B6A9847BE
:104E8C000020F7E710B504464069002801DBFFF766
:104E9C00D1FD4FF0FF3363610023E386238710BD00
:104EAC0070B50546C06BEE8E68B12B6C9C1B9442A2
:104EBC0028BF14462246304401F0C4F9EB8E23443B
:104ECC00EB86204670BD0446F1E7D0B503681B693C
:104EDC0004460F461646984790B1236820461B6936
:104EEC009847E38EE16B8642A8BF064619443246CA
:104EFC00384601F0A7F9E38E3344E3863046D0BD43
:104F0C004FF0FF36FAE7000070B50446054B44F845
:104F1C00043B01F1200506460FCD0FC42B6823700E
:104F2C00304670BD48640D00F0B59646026889B0F5
:104F3C00976A0A4A02921C1D8C4606460FCC03AD9A
:104F4C000FC523682B70BDF838300093724602AB46
:104F5C0061463046B84709B0F0BD00BF48640D004B
:104F6C00F0B5036889B09F6A0C4B029300F12006E0
:104F7C0004460FCE03AD0FC533682B70A38EE28EA3
:104F8C00E16B0093204602ABB84723680546DB690A
:104F9C0020469847284609B0F0BD00BF48640D0074
:104FAC00F0B54378022B8DB005460C46174604D15C
:104FBC00011D204600F0FCFB22E00A2B25D111221A
:104FCC00002101A801F04CF9AB6803B305F108030B
:104FDC0001AE05F1180C18685968324603C2083343
:104FEC0063451646F7D1062301A906A807AE8DF82E
:104FFC00143000F09BFB0FCE04340FC433682370C5
:10500C001FB16888FFF75EFC38800DB0F0BDEB680F
:10501C00002BDBD14FF6FF702E69FFF74BFC86425D
:10502C00D4D105F11401C4E72DE9F04117468EB037
:10503C000022064601AB084611460192FFF7D2FB4F
:10504C00041E20DB019B2BB35B691BB302A800F091
:10505C005FFB019B0022586902A9FFF7A1FF02A880
:10506C0000F076FBB0B1336803ADD3F838800B4B4E
:10507C0008930FCD09AC0FC42B6823703A4608A9CE
:10508C003046C04704460198FFF7A4FB20460EB0FB
:10509C00BDE8F0814FF0FF34F5E700BF48640D0028
:1050AC002DE9F047D0F81490B9F1000F90B00546F7
:1050BC000E4690461C463CDB00293AD04FF01C0AA9
:1050CC0009AF52460021384601F0CAF8CDF80CA0C1
:1050DC00DCB100224FF47A70B4FBF0F3CDE904326A
:1050EC0000FB13435843102307920690009341F2A0
:1050FC0006026B4440F6FF714846FFF793FC0446EA
:10510C0020B1204610B0BDE8F087082403ABCDE9F0
:10511C0000736869234642463146FFF793FC041E30
:10512C00EFDB05F1340205F11C013846FFF738FFBF
:10513C00E7E74FF0FF34E4E738B5054614462B7D1E
:10514C00062B084610D140F61C231380FFF7C2FB38
:10515C0008342B1D24F8060C143553F8042B44F892
:10516C00042BAB42F9D138BD042BFCD14FF40473A2
:10517C001380FFF7AFFB60806868FFF79BFB6060F4
:10518C00F1E72DE9F0438BB003AF4FF01C099846C3
:10519C0004460D46164600214A46384601F060F892
:1051AC00BDF848103A464046FFF7C6FF9DF80D3053
:1051BC0053B1CDE900796069002332462946FFF7E7
:1051CC0049FC0BB0BDE8F0834FF0FF30F9E700006D
:1051DC0038B500254FF47A73C0E901530B4B03F13A
:1051EC0008026C3303614FF0FF33044602604361E5
:1051FC001C3000F08DFA4FF40073C4E91035E586CD
:10520C002587E56384F84850204638BDB0630D000F
:10521C0010B590F84830044623B1C06B10B1012191
:10522C0000F019FE0023E36384F848302364E3861E
:10523C00238710BD70B5044616460D46FFF7E8FFF0
:10524C000023E66323642EB12564206C003818BF5C
:10525C00012070BD002DF8D02846FEF714FF012365
:10526C00E06384F848300028EFD0EDE7F8B5174636
:10527C00C26B05460C461AB9016C09B1FFF7DAFF8F
:10528C0004340FCC05F120060FC6236833700023BD
:10529C00286CAF86EB862B87F8BD37B5C26B0446FE
:1052AC000B462AB9016C19B10193FFF7C3FF019B9F
:1052BC00E16B0022E286228741B1226C32B1206878
:1052CC00056B2046A8470028C8BF208723681B69A8
:1052DC00204603B0BDE83040184710B504460068BE
:1052EC00FFF7ACFC204610BD10B50446006808B1B1
:1052FC00FFF7A4FC0023C4E90133236010BD38B5CB
:10530C0004460D4600680131FFF7A0FC10B1C4E95A
:10531C000005012038BD10B50368044623B143686D
:10532C008B4201D3012010BD2046FFF7E8FF002877
:10533C00F9D0A368002BF5D122681370F2E737B5CA
:10534C000D46114601920446FFF7E5FF019A28B974
:10535C002046FFF7C9FF204603B030BDA2602946A6
:10536C00206800F06FFF2268A3680021D154F2E797
:10537C00002313B5C0E9003304468360037341B1C5
:10538C000846019100F0A0FF019902462046FFF764
:10539C00D6FF204602B010BD13B5044659B10846DD
:1053AC00019100F091FF019902462046FFF7C7FFDB
:1053BC00204602B010BDFFF797FFF9E770B5054620
:1053CC000E4609B9002070BD6AB1846814442146A8
:1053DC00FFF7A1FF0028F5D02868AB6831461844C8
:1053EC0000F06AFFAC600120EDE707B500238DF8F3
:1053FC000410012201A98DF80530FFF7DFFF03B07F
:10540C005DF804FB10B50446006808B1FFF742FADA
:10541C00204610BD10B5064C002320462360FFF734
:10542C0031FA2046034A0449BDE8104000F00EBD95
:10543C005CE60320B0E5032011540D00F8B50646D8
:10544C000D468F180024BD420CD0336815F8011B93
:10545C009B6830469847031E01DB1C44F3E7002C85
:10546C0008BF1C462046F8BD13B50446084659B182
:10547C00019100F029FF23680199DB680246204660
:10548C0002B0BDE81040184702B010BD08B5FFF7D8
:10549C00EBFF08BD03689B6818470A680B46126847
:1054AC0001461846104738B50D210546FFF7F2FFA7
:1054BC000A2104462846FFF7EDFF204438BD38B5D5
:1054CC000546FFF7D1FF04462846FFF7ECFF2044C2
:1054DC0038BD38B50546FFF7E0FF04462846FFF710
:1054EC00E2FF204438BD30B58BB000238DF824305A
:1054FC00012A98BF0A2209AC0D46B1FBF2F101FB5F
:10550C00125303F0FF03092B94BF30333733DBB254
:10551C00AA4204F8013DEFD92146FFF7A5FF0BB0D5
:10552C0030BD0000014B024A1A60704760E6032050
:10553C0020640D00024B1A68024B1A60704700BFC2
:10554C0048E5032064E603200021FFF7E3BA10B519
:10555C008368044613B1032201469847204610BDC8
:10556C0010B50446FFF7F3FF204610BD0348044A6C
:10557C0004490023836000F069BC00BF68E6032087
:10558C00B0E503206D550D00014B1860704700BF4E
:10559C004CE5032008B50B4B43B100F071F90368DF
:1055AC001B699847002801DDAFF30080064B43B11F
:1055BC0000F0E4F903681B699847002801DDAFF39C
:1055CC00008008BD000000000000000008B5FFF7D7
:1055DC00E1FFFFF74FF9014B186008BDD4E703203A
:1055EC000248034A0349121A00F02CBE00F40320AF
:1055FC0004F4032080650D0007B5002300931A46C0
:10560C006FF07701FFF798FA03B05DF804FB000028
:10561C0007B543880A2B08D0502B0BD1094B1B68BC
:10562C004BB103B05DF804EB1847FFF7E5FF03B08F
:10563C005DF804FB002300931A466FF07701FFF727
:10564C007BFAF4E77CE6032038B5124C1248134D74
:10565C000021FFF703FB2368AB42114B0CBF012267
:10566C0000221A7002D0FFF7BBFF2560FFF7FAF893
:10567C00044600F0FDFD0B4B13B12046AFF3008048
:10568C0000210848FFF7CAFABDE838400648002157
:10569C00FFF748BA00F4032095550D001E1C279AFD
:1056AC0078E60320000000001D560D00F0B5037DC8
:1056BC00062B8DB00E4600F104074FF0000412D0FB
:1056CC0000F1080515F8011D0A223046FFF70BFF03
:1056DC00AF42044419D0002CF4D02E213046FFF7F1
:1056EC00D9FE0444EEE72F236A4639460A208DF88A
:1056FC000040FFF7D7F8684600F0E6FD3368024635
:10570C00DB68694630469847044620460DB0F0BD2C
:10571C0010B5054B0446112240F8043B002100F063
:10572C009FFD204610BD00BF48640D000346074A8C
:10573C0010B543F8042B01F1100251F8044B43F857
:10574C00044B9142F9D10A781A7010BD48640D00CF
:10575C00037D042B04D14068003818BF012070472A
:10576C00062B07D143683BB983682BB9C3681BB9B7
:10577C000069F1E7002070470120704710B59DF8D3
:10578C00084044EA032343EA024242EA016104234B
:10579C004160037510BD000037B5044D05609DF8E0
:1057AC0018500095FFF7EAFF03B030BD48640D00B8
:1057BC0013B5CB7800938B784A780978FFF7DEFF26
:1057CC0002B010BD41747047704708B50021007CD1
:1057DC00FFF780F940EAE07008BD08B50121007CB4
:1057EC00FFF778F940EAE07008BD08B5007CFFF7D8
:1057FC0069F920EAE07008BD08B5007CFFF75AF99A
:10580C0020EAE07008BD13B50446007C0191FFF757
:10581C0059F90028019901DC607C20B1207CFFF74C
:10582C0061F920EAE07002B010BD007CFFF762B9AC
:10583C0010B51421044600F00EFB204610BD0000EC
:10584C0010B54FF47A73044608460021C4E90113DD
:10585C00044B23600123207463741146FFF71AF97B
:10586C00204610BD5C640D00007C0022FFF71AB9C5
:10587C0010B514220446002100F0F2FC204610BDA5
:10588C0010B5104C88B003A8FFF7F2FF2178BFF3D6
:10589C005B8F11F0010111D120460191FEF7F7FB4E
:1058AC00019958B103AA0848FFF7CAFF2046FEF732
:1058BC00F3FB064A0649044800F0C8FA024808B04F
:1058CC0010BD00BF80E6032084E60320B0E5032072
:1058DC00D5570D0070474174704708B5007CFFF731
:1058EC0039F820EAE07008BD08B5007CFFF70AF82B
:1058FC0020EAE07008BD08B5007CFFF713F840EA19
:10590C00E07008BD08B5007CFFF704F840EAE070D1
:10591C0008BD007CFFF70EB837B5457C04462DB1A9
:10592C00207C03B0BDE83040FEF7E4BF007C019161
:10593C00FFF710F800280199F2DC284603B030BDBF
:10594C0010B51421044600F086FA204610BD000064
:10595C0010B54FF0000C0446084611464FF47A720D
:10596C00C4E901C2044A22600122207462741A46FE
:10597C00FEF7B8FF204610BD8C640D0013B50E4C1D
:10598C002178BFF35B8F11F0010112D120460191F8
:10599C00FEF77DFB019960B1084A094B0948FFF7F6
:1059AC00D7FF2046FEF778FB074A0849054800F068
:1059BC004DFA044802B010BD98E603209CE6032083
:1059CC0020E70320A4E70320B0E50320E1580D00F5
:1059DC007047F8B5064615460C468F18BC4206D0E3
:1059EC00336814F8011B9B6830469847F6E7284645
:1059FC00F8BD007C0022FEF7CDBF007C0021FEF735
:105A0C00D1BF007C0021FEF7D5BF007C0021FEF742
:105A1C00D9BF007C0021FEF7DDBF10B51421044670
:105A2C0000F019FA204610BD10B54FF47A730446F5
:105A3C0008460021C4E90113034B2360207411466E
:105A4C00FEF7D8FF204610BDBC640D000023007C7F
:105A5C001A461946FEF786BF7FB500221423CDE9FE
:105A6C000122ADF804300B788DF808304B680393A5
:105A7C00CB680493007C0B7A059301A9FEF7C2FF57
:105A8C0007B05DF804FB1FB5003B8DF800104FF01C
:105A9C006401039118BF0123694601928DF8083007
:105AAC00FFF7DAFF05B05DF804FB0123FFF7EBBF4E
:105ABC00007C0022FEF75EBFC9B2FFF7F9BF007C85
:105ACC000022FEF75FBF0121FFF7F9BF00224068FB
:105ADC001146FFF75BB8002240681146FFF776B815
:105AEC00002240681146FFF781B840680022FFF79A
:105AFC0075B84068002281F00101FFF75FB8002300
:105B0C0040681A461946FFF751B8002340681A46F8
:105B1C001946FFF743B8002240681146FFF726B834
:105B2C00406800220221FFF729B8002340681A467A
:105B3C00FFF714B8024B04225A60024A1A607047ED
:105B4C00B8E70320E4640D00002340681A46FFF711
:105B5C0005B8406800220221FFF710B80022406807
:105B6C001146FFF703B8002240681146FFF70EB844
:105B7C00002340681A461946FFF710B80023406806
:105B8C001A461946FFF712B840680021FFF736B8DD
:105B9C0040680021FFF73AB84068002281F001010B
:105BAC00FFF70CB840680022FFF718B800224068D5
:105BBC001146FFF71BB8002240681146FFF706B8E4
:105BCC002DE9F043002495B016460D460746FFF725
:105BDC009FFD214618220EA8009400F041FB4023A3
:105BEC00CDE90C3421466B460CAA3046FEF7FAFD83
:105BFC000446002846D1024601216868FEF7C6FF1C
:105C0C000221804622466868FEF7C0FF009E81464E
:105C1C002146002E36D0002934D17368022B03D0D4
:105C2C000A2B0BD0F669F4E7B8F1000F04D07169B8
:105C3C0038460431FFF7BCFD4146F3E7B9F1000FDC
:105C4C0001D14946EEE77469102201A800F008FB67
:105C5C0006238DF8143001AD04F1080318341868CC
:105C6C0059682A4603C20833A3421546F7D101A945
:105C7C0006A807ADFFF75AFD0FCD3C1D0FC42B68CE
:105C8C002370DEE70098FEF7A5FD384615B0BDE899
:105C9C00F0830000024B034A1A6000225A607047DE
:105CAC00C0E7032020650D00232813B502D900207E
:105CBC0002B010BDA0F10B03022B1AD8174C21789F
:105CCC00BFF35B8F11F001010BD120460191FEF760
:105CDC00DEF9019928B11248FFF706F82046FEF7C5
:105CEC00DBF90F4B1878FEF7CDFE0028DFD1012031
:105CFC00DEE7012809D800F081F80021007CFEF7CE
:105D0C0071FE80F00100C0B2D2E709380128EED84C
:105D1C00FFF734FE007CFEF715FEF2E7C8E7032020
:105D2C00CCE70320232838B504460D460AD8FF29B2
:105D3C0008D0FFF7B9FF28B129462046BDE8384006
:105D4C00FEF760BD38BD38B504460D46FEF762FD62
:105D5C00FF2810D0062804D84D2323FA00F0C307DF
:105D6C0009D42046FFF7A0FF28B129462046BDE8FC
:105D7C003840FEF757BD38BD10B50446FEF74AFD56
:105D8C00031FDBB2012B08D92046FFF78DFF20B192
:105D9C002046BDE81040FEF74DBD002010BD0D287B
:105DAC0010B504469CBF0E34A4B22046FFF77CFF0E
:105DBC0050B103212046FEF71DFD032804D12046D7
:105DCC00BDE81040FEF73EBD002010BD38B50023E5
:105DDC002025438014230446038085600561064911
:105DEC00284600F03AF804496060284600F035F87F
:105DFC00E060204638BD00BF54650D0030B50F4D36
:105E0C002978BFF35B8F11F0010487B013D12846BA
:105E1C00FEF73DF978B101A8FFF7D8FF01AA21469A
:105E2C000748FFF701FE2846FEF736F9054A0649F2
:105E3C00034800F00BF8024807B030BDD8E7032048
:105E4C00DCE70320B0E50320DD590D000B460146CD
:105E5C00184600F0E9B9FEF718B9FEF714B90000BE
:105E6C0081F0004102E000BF83F0004330B54FEAFF
:105E7C0041044FEA430594EA050F08BF90EA020F6C
:105E8C001FBF54EA000C55EA020C7FEA645C7FEAFF
:105E9C00655C00F0E2804FEA5454D4EB5555B8BF22
:105EAC006D420CDD2C4480EA020281EA030382EA93
:105EBC00000083EA010180EA020281EA0303362D25
:105ECC0088BF30BD11F0004F4FEA01314FF4801CF8
:105EDC004CEA113102D0404261EB410113F0004F0A
:105EEC004FEA03334CEA133302D0524263EB4303C1
:105EFC0094EA050F00F0A780A4F10104D5F1200E5F
:105F0C000DDB02FA0EFC22FA05F2801841F10001B9
:105F1C0003FA0EF2801843FA05F359410EE0A5F18D
:105F2C0020050EF1200E012A03FA0EFC28BF4CF0BE
:105F3C00020C43FA05F3C01851EBE37101F0004574
:105F4C0007D54FF0000EDCF1000C7EEB00006EEB81
:105F5C000101B1F5801F1BD3B1F5001F0CD349080B
:105F6C005FEA30004FEA3C0C04F101044FEA445262
:105F7C0012F5800F80F09A80BCF1004F08BF5FEAE9
:105F8C00500C50F1000041EB045141EA050130BDC9
:105F9C005FEA4C0C404141EB0101013C28BFB1F5DB
:105FAC00801FE9D291F0000F04BF01460020B1FA26
:105FBC0081F308BF2033A3F10B03B3F120020CDAF9
:105FCC000C3208DD02F1140CC2F10C0201FA0CF0D7
:105FDC0021FA02F10CE002F11402D8BFC2F1200C3C
:105FEC0001FA02F120FA0CFCDCBF41EA0C019040F2
:105FFC00E41AA2BF01EB0451294330BD6FEA04043B
:10600C001F3C1CDA0C340EDC04F11404C4F1200225
:10601C0020FA04F001FA02F340EA030021FA04F337
:10602C0045EA030130BDC4F10C04C4F1200220FA8E
:10603C0002F001FA04F340EA0300294630BD21FACC
:10604C0004F0294630BD94F0000F83F4801306BF92
:10605C0081F480110134013D4EE77FEA645C18BF86
:10606C007FEA655C29D094EA050F08BF90EA020F1D
:10607C0005D054EA000C04BF1946104630BD91EA15
:10608C00030F1EBF0021002030BD5FEA545C05D118
:10609C004000494128BF41F0004130BD14F5800457
:1060AC003CBF01F5801130BD01F0004545F0FE41CB
:1060BC0041F470014FF0000030BD7FEA645C1ABF00
:1060CC00194610467FEA655C1CBF0B46024650EA37
:1060DC00013406BF52EA033591EA030F41F4002163
:1060EC0030BD00BF90F0000F04BF0021704730B5E9
:1060FC004FF4806404F132044FF000054FF00001BE
:10610C0050E700BF90F0000F04BF0021704730B57E
:10611C004FF4806404F1320410F0004548BF404253
:10612C004FF000013EE700BF42004FEAE2014FEAA8
:10613C0031014FEA02701FBF12F07F4393F07F4F83
:10614C0081F06051704732F07F4208BF704793F086
:10615C007F4F04BF41F40021704730B54FF4607499
:10616C0001F0004521F000411CE700BF50EA01029C
:10617C0008BF704730B54FF000050AE050EA010245
:10618C0008BF704730B511F0004502D5404261EBB5
:10619C0041014FF4806404F132045FEA915C3FF4F6
:1061AC00D8AE4FF003025FEADC0C18BF03325FEA93
:1061BC00DC0C18BF033202EBDC02C2F1200300FA44
:1061CC0003FC20FA02F001FA03FE40EA0E0021FA69
:1061DC0002F11444BDE600BF4FEA410212F5001271
:1061EC0015D211D56FF47873B3EB625212D94FEA12
:1061FC00C12343F0004343EA505311F0004F23FAFC
:10620C0002F018BF404270474FF00000704750EA50
:10621C00013005D111F0004008BF6FF0004070470D
:10622C004FF00000704700BF10B5054C13462CB161
:10623C000A4601460220AFF3008010BD2046FCE761
:10624C00000000000A44914200F1FF3300D1704776
:10625C0010B511F8014B03F8014F9142F9D110BD63
:10626C0002440346934200D1704703F8011BF9E73F
:10627C0038B50D4B1D68AB6B04467BB91820FEF787
:10628C00D5FC0A4A0A4BA863C0E90023094B83607A
:10629C000B23838101220023C0E90423AB6B002272
:1062AC001C615A6138BD00BF4CE503200E33CDABE9
:1062BC0034126DE6ECDE0500034611F8012B03F8F1
:1062CC00012B002AF9D17047034613F8012B002A41
:1062DC00FBD1181A013870471D400D0059400D00B4
:1062EC0081400D0085400D00000000004152474FD9
:1062FC004E204950202844484350293A20002F670B
:10630C0072617373002F6272616E6368002F746F19
:10631C007563680070726573736564002D2D2D2D87
:10632C002D2D2D2D2D2D2D2D2D2D2D2D2D2D2D2D91
:10633C002D2D2D2D2D2D2D2D2D2D2D2D2D2D2D00AE
:10634C004D697374616B656E205265616C6974691B
:10635C00657300436F6D706C6574656420766F694E
:10636C00642073657475700000000000000000006C
:10637C00D74C0D00CD4C0D00C34C0D00B94C0D008D
:10638C00AD4C0D00A14C0D00955B0D009D5B0D00FF
:10639C00954C0D008D4C0D00834C0D00794C0D006F
:1063AC00CD5B0D000000000000000000AD400D00B2
:1063BC00DB400D00854D0D00AD4E0D007D4D0D00EB
:1063CC009D4D0D00BB4D0D00D54D0D00F94D0D0033
:1063DC00914E0D008F510D00354F0D00AD500D003D
:1063EC00654D0D0079520D0035500D006D4F0D00AF
:1063FC00A7520D00D74E0D00734D0D00154F0D001B
:10640C00794D0D00D74D0D00F0FFFFFF000000008F
:10641C00F14D0D006170700025592D256D2D2564F1
:10642C005425483A254D3A2553257A0061736374F7
:10643C00696D65000000000000000000B9560D00F9
:10644C00AB400D00CD400D0000000000000000002E
:10645C00D5570D003D580D0013580D0049540D0033
:10646C0005580D00D7570D00E7570D0037580D0094
:10647C00F7570D00D1570D00000000000000000080
:10648C00E1580D004D590D0025590D0049540D00D2
:10649C00F5580D0011590D0003590D001F590D0031
:1064AC00E3580D00E7580D0000000000000000004C
:1064BC00DD590D00275A0D00FF590D00DF590D0055
:1064CC00075A0D000F5A0D00175A0D001F5A0D00D8
:1064DC000000000000000000375B0D002D5B0D007C
:1064EC00235B0D00D95A0D00175B0D000B5B0D00E3
:1064FC00955B0D009D5B0D00FF5A0D00F75A0D00CA
:10650C00ED5A0D00E35A0D00CD5B0D0000000000AC
:10651C0000000000555B0D005F5B0D00695B0D001A
:10652C00735B0D007D5B0D00895B0D00955B0D00B1
:10653C009D5B0D00A55B0D00B15B0D00B95B0D0003
:10654C00C35B0D00CD5B0D00000000006D450D0020
:10655C00E14C0D00294D0D0021540D0031550D005D
:10656C0041550D0079550D00415B0D00A15C0D00EE
:04657C00000000001B
:046580000000000017
:10658400401F000038640D0050E5032000000000A7
:1065940000000000000000000000000000000000F7
:1065A40000000000000000000000000000000000E7
:1065B40000000000000000000000000000000000D7
:1065C40000000000000000000000000000000000C7
:1065D40000000000000000000000000000000000B7
:0C65E400000000000000000000000000AB
:1065F000FFFFFFFF00000102030405060708090A68
:106600000B0C0D0E0F101112131415161718191A62
:086610001B1C1D1E1F202800A9
:04661800785634126A
:04000003D000401CCD
:00000001FF
